:100000000C9463000C948B000C948B000C948B006C
:100010000C948B000C948B000C948B000C948B0034
:100020000C948B000C948B000C948B000C948B0024
:100030000C948B000C948B000C948B000C948B0014
:100040000C94D6030C948B000C948B000C948B00B6
:100050000C948B000C948B000C948B000C948B00F4
:100060000C948B000C948B000000000024002700EF
:100070002A0000000000250028002B0000000000DE
:1000800023002600290004040404040404040202DA
:100090000202020203030303030301020408102007
:1000A0004080010204081020010204081020000012
:1000B0000008000201000003040700000000000027
:1000C00000007905C90511241FBECFEFD8E0DEBFBF
:1000D000CDBF21E0AAE1B1E001C01D92A534B20775
:1000E000E1F711E0A0E0B1E0EAE9F0E102C005903B
:1000F0000D92AA31B107D9F710E0C2E6D0E004C0F2
:100100002197FE010E943906C136D107C9F70E9426
:1001100020040C9440080C940000AF92BF92CF9240
:10012000DF92EF92FF920F931F93CF93DF936C01B7
:100130007B018B01040F151FEB015E01AE18BF0898
:10014000C017D10759F06991D601ED91FC9101904A
:10015000F081E02DC6010995892B79F7C501DF9162
:10016000CF911F910F91FF90EF90DF90CF90BF90B4
:10017000AF900895833081F028F4813099F0823077
:10018000A9F008958730A9F08830C9F08430B1F41F
:10019000809180008F7D03C0809180008F77809355
:1001A0008000089584B58F7784BD089584B58F7DD0
:1001B000FBCF8091B0008F778093B000089580913D
:1001C000B0008F7DF9CFCF93DF93282F30E0F90176
:1001D000E255FF4F8491F901E656FF4FD491F901A2
:1001E000EA57FF4FC491CC23A1F081110E94BA00BD
:1001F000EC2FF0E0EE0FFF1FE458FF4FA591B491F4
:10020000EC91ED2381E090E009F480E0DF91CF9163
:10021000089580E090E0FACF1F93CF93DF93282FCB
:1002200030E0F901E255FF4F8491F901E656FF4FA6
:10023000D491F901EA57FF4FC491CC23A9F0162FAE
:1002400081110E94BA00EC2FF0E0EE0FFF1FEE5874
:10025000FF4FA591B4918FB7F894EC91111108C09C
:10026000D095DE23DC938FBFDF91CF911F9108954E
:10027000DE2BF8CFCF93DF9390E0FC01E656FF4FE3
:1002800024918A579F4FFC0184918823D1F090E0FC
:10029000880F991FFC01E859FF4FA591B491FC010B
:1002A000EE58FF4FC591D49161110EC09FB7F894DD
:1002B0008C91E22FE0958E238C932881E223E883B2
:1002C0009FBFDF91CF9108958FB7F894EC91E22B07
:1002D000EC938FBFF6CF3FB7F89480911F019091B8
:1002E0002001A0912101B091220126B5A89B05C053
:1002F0002F3F19F00196A11DB11D3FBFBA2FA92FA5
:10030000982F8827BC01CD01620F711D811D911DA1
:1003100042E0660F771F881F991F4A95D1F708950D
:100320008F929F92AF92BF92CF92DF92EF92FF9205
:100330004B015C010E946B016B017C010E946B010F
:100340006C197D098E099F09683E734081059105EE
:10035000A8F321E0821A9108A108B10888EEC80E1E
:1003600083E0D81EE11CF11C81149104A104B104A6
:1003700029F7FF90EF90DF90CF90BF90AF909F90C4
:100380008F900895089590E080E008950F931F9353
:10039000CF93DF93EC0188819981009759F02A81EE
:1003A0003B812617370730F081E0DF91CF911F9115
:1003B0000F9108958B016F5F7F4F0E946407009734
:1003C00059F0998388831B830A832C813D81232BD9
:1003D00059F7FC011082E8CF80E0E7CFCF93DF939D
:1003E000EC0188819981009711F00E94DB06198247
:1003F00018821D821C821B821A82DF91CF91089580
:10040000CF92DF92EF92FF920F931F93CF93DF93E0
:10041000CDB7DEB728970FB6F894DEBF0FBECDBFBD
:100420007C01CB014AE09E012F5F3F4F6901B9017A
:100430000E94CD05F60101900020E9F73197EC19F3
:10044000FD09D9F0D70114960D911C910E0F1F1FB5
:10045000B801C7010E94C6018823F9F0F701208185
:10046000318184819581B601820F931F0E942A08F1
:10047000D70115961C930E931497C70128960FB6B3
:10048000F894DEBF0FBECDBFDF91CF911F910F91CA
:10049000FF90EF90DF90CF900895C7010E94EE018A
:1004A000ECCFEF92FF920F931F93CF93DF93EC016A
:1004B0008617970781F0FB01008111810115110555
:1004C00039F0E480F580B7010E94C60181110BC0AC
:1004D000CE010E94EE01CE01DF91CF911F910F91CD
:1004E000FF90EF900895FD82EC82B8018881998198
:1004F0000E942A08F0CFFC0111821082138212821E
:100500001582148263E271E00C945102FC01808137
:100510009181009711F00C94DB060895CF93DF933F
:10052000EC0160E08E810E940C0161E08E810E94EE
:100530000C0160E08E810E940C018BE891E0019734
:10054000F1F7DF91CF910895CF92DF92EF92FF9272
:100550000F931F93CF93DF936C017C0187E0E80E2C
:10056000F11CD0E0C0E0062F10E0B8010C2E02C054
:10057000759567950A94E2F76170F70181917F01A3
:100580000E940C012196C430D10579F7C601DF9194
:10059000CF911F910F91FF90EF90DF90CF900C942F
:1005A0008E02CF92DF92EF92FF920F931F93CF9321
:1005B000DF93EC01F62E642F8C810E940C018D815B
:1005C0008F3F19F060E00E940C010F2D10E08F8525
:1005D00084FF25C06E0187E0C80ED11CF12CE12CF0
:1005E000B8010E2C02C0759567950A94E2F7617008
:1005F000F60181916F010E940C01FFEFEF1AFF0AD3
:1006000088E0E816F10461F7CE01DF91CF911F91E8
:100610000F91FF90EF90DF90CF900C948E02B80175
:1006200084E0759567958A95E1F7CE010E94A40252
:100630006F2DCE01DF91CF911F910F91FF90EF9021
:10064000DF90CF900C94A40240E0682F89E291E003
:100650000C94D102CF93DF93823029F4909138012A
:1006600098609093380180933C0110923D0180E4A2
:1006700080933E0180E180933F0180E580934001BB
:1006800061E080912D010E943A0180912E018F3FFF
:1006900019F061E00E943A0161E080912F010E940F
:1006A0003A01C9E2D1E09E012952314080913801DE
:1006B00084FD0BC084E090E021962817390744F4AC
:1006C00061E08E810E943A01EECF88E090E0F4CFA5
:1006D0008BE39DE00197F1F760E080912D010E948E
:1006E0000C0160E080912F010E940C0180912E018D
:1006F0008F3F19F060E00E940C018091380184FD69
:1007000039C063E089E291E00E94A402CBE4D6E420
:10071000CE010197F1F763E089E291E00E94A40223
:100720002197F1F763E089E291E00E94A40283E55A
:1007300092E00197F1F762E089E291E00E94A40261
:100740008091380180620E94240384E08093390103
:100750008CE00E94240381E00E9424038BE39FE14C
:100760000197F1F782E080933A0186E0DF91CF9123
:100770000C94240380620E9424038BE496E4019786
:10078000F1F78091380180620E94240383E592E0B2
:100790000197F1F78091380180620E942403D0CF45
:1007A00041E00E94D10281E090E008951F920F92F3
:1007B0000FB60F9211242F933F938F939F93AF9374
:1007C000BF9380911B0190911C01A0911D01B091DC
:1007D0001E0130911A0123E0230F2D3758F50196A1
:1007E000A11DB11D20931A0180931B0190931C0140
:1007F000A0931D01B0931E0180911F0190912001D3
:10080000A0912101B09122010196A11DB11D8093FB
:100810001F0190932001A0932101B0932201BF9169
:10082000AF919F918F913F912F910F900FBE0F909D
:100830001F90189526E8230F0296A11DB11DD2CF57
:10084000CF93DF9300D000D000D0CDB7DEB778943F
:1008500084B5826084BD84B5816084BD85B58260C5
:1008600085BD85B5816085BD80916E008160809376
:100870006E001092810080918100826080938100DF
:1008800080918100816080938100809180008160EF
:10089000809380008091B10084608093B10080914A
:1008A000B00081608093B00080917A008460809372
:1008B0007A0080917A00826080937A0080917A0039
:1008C000816080937A0080917A00806880937A00BA
:1008D0001092C10060E08EE00E943A0160E08FE07B
:1008E0000E943A0160E080E10E943A0160E081E10B
:1008F0000E943A0160E082E10E943A0160E083E1F7
:100900000E943A0160E080E00E943A0160E081E0EC
:100910000E943A0160E08DE00E943A0182E00E946C
:100920002A038EE00E94E3004C018FE00E94E30066
:100930005C0180E10E94E3006C0181E10E94E30020
:100940007C0182E10E94E3008C0183E10E94E300CC
:100950003C0180E00E94E3002C0181E00E94E30062
:100960001C018DE00E94E300892809F04FC0CE01F0
:1009700001960E947B0261E070E0CE0101960E9428
:100980000002BC0183E291E00E945102CE01019677
:100990000E9486026CE271E080E090E00E9490018B
:1009A000E1E080913C018111E0E0E195F0E0E75D5C
:1009B000FE4F848980680E94240347E050E062E192
:1009C00071E089E291E00E948D00E0913C01E2300B
:1009D00008F08DC0E150F0E0E75DFE4F848980684B
:1009E0000E94240340912701509128016091230126
:1009F0007091240189E291E00E948D0080E090E0F6
:100A0000892B09F48ECF0E9400008BCFAB2839F4DC
:100A1000CE0101960E947B0262E070E0AECFCD284D
:100A200039F4CE0101960E947B0263E070E0A5CF0D
:100A3000EF2839F4CE0101960E947B0264E070E059
:100A40009CCF012B39F4CE0101960E947B0265E018
:100A500070E093CF672839F4CE0101960E947B02A3
:100A600066E070E08ACF452839F4CE0101960E94F5
:100A70007B0267E070E081CF232839F4CE01019634
:100A80000E947B0268E070E078CF892B09F088CF64
:100A9000409127015091280141155105D1F08091D5
:100AA0002301909124014150510950932801409312
:100AB0002701BC016F5F7F4F0E943108E091230145
:100AC000F09124018091270190912801E80FF91FEE
:100AD000108268EC70E080E090E00E94900181E07C
:100AE0000E9424038BE39FE10197F1F759CFE1E0E6
:100AF00072CF10922C0110922B018AE091E090931A
:100B00002A01809329018CE080932D018FEF80933F
:100B10002E018BE080932F0185E08093300184E0EB
:100B20008093310183E08093320182E0809333012E
:100B30001092340110923501109236011092370153
:100B40001092380181E00E942A0310922401109231
:100B50002301109226011092250110922801109273
:100B6000270170E060E083E291E00E94C6018111FC
:100B700004C083E291E00C94EE01109228011092DF
:100B8000270169E171E080912301909124010C9487
:100B90002A0883E291E00C948602BB274A3031F4A4
:100BA000992322F4BDE2909581959F4F0C94D9052D
:100BB000BB27FB015527AA27880F991FAA1FA41737
:100BC00010F0A41B83955051B9F7A05DAA3308F02B
:100BD000A95DA193009779F7B111B1931192CB015F
:100BE0000C94F205DC01FC01672F71917723E1F78A
:100BF000329704C07C916D9370836291AE17BF07EA
:100C0000C8F308952F923F924F925F926F927F9216
:100C10008F929F92AF92BF92CF92DF92EF92FF920C
:100C20000F931F93CF93DF93CDB7DEB7CA1BDB0BB8
:100C30000FB6F894DEBF0FBECDBF09942A8839885D
:100C400048885F846E847D848C849B84AA84B98464
:100C5000C884DF80EE80FD800C811B81AA81B98170
:100C6000CE0FD11D0FB6F894DEBF0FBECDBFED0184
:100C70000895EE0FFF1F0590F491E02D09940F9356
:100C80001F93CF93DF938230910510F482E090E0C0
:100C9000E0914301F091440130E020E0B0E0A0E0B9
:100CA000309799F42115310509F44AC0281B390BF6
:100CB00024303105D8F58A819B816115710589F150
:100CC000FB0193838283FE0111C040815181028127
:100CD000138148175907E0F04817590799F41097FE
:100CE00061F012960C93129713961C933296CF01D3
:100CF000DF91CF911F910F910895009343011093BD
:100D00004401F4CF2115310551F04217530738F053
:100D1000A901DB019A01BD01DF01F801C1CFEF019B
:100D2000F9CF9093440180934301CDCFFE01E20FB0
:100D3000F31F819391932250310939832883D7CFB0
:100D40002091410130914201232B41F42091020175
:100D50003091030130934201209341012091000121
:100D6000309101012115310541F42DB73EB7409175
:100D7000040150910501241B350BE0914101F091D4
:100D80004201E217F307A0F42E1B3F0B2817390787
:100D900078F0AC014E5F5F4F2417350748F04E0FD7
:100DA0005F1F5093420140934101819391939FCFE4
:100DB000F0E0E0E09CCFCF93DF930097E9F0FC01F7
:100DC000329713821282A0914301B0914401ED0148
:100DD00030E020E01097A1F420813181820F931F31
:100DE00020914101309142012817390709F061C073
:100DF000F0934201E0934101DF91CF910895EA0120
:100E0000CE17DF07E8F54A815B819E014115510548
:100E1000B1F7E901FB83EA8349915991C40FD51FCA
:100E2000EC17FD0761F4808191810296840F951F74
:100E3000E90199838883828193819B838A83F0E08F
:100E4000E0E012968D919C9113970097B9F52D9142
:100E50003C911197CD010296820F931F2091410181
:100E6000309142012817390739F6309751F5109221
:100E7000440110924301B0934201A0934101BCCFC1
:100E8000D383C28340815181840F951FC817D9072E
:100E900061F44E5F5F4F88819981480F591F5183DC
:100EA00040838A819B81938382832115310509F0D8
:100EB000B0CFF0934401E09343019ECFFD01DC01EC
:100EC000C0CF13821282D7CFB0E0A0E0EAE6F7E00D
:100ED0000C9404068C01009751F4CB010E943F064C
:100EE0008C01C801CDB7DEB7E0E10C942006FC010F
:100EF000E60FF71F9C0122503109E217F30708F4AF
:100F00009DC0D901CD91DC911197C617D70798F0F4
:100F1000C530D10530F3CE0104978617970708F343
:100F2000C61BD70B2297C193D1936D937C93CF01AE
:100F30000E94DB06D6CF5B01AC1ABD0A4C018C0EB9
:100F40009D1EA0914301B0914401512C412CF12CE4
:100F5000E12C109731F58091410190914201881563
:100F6000990509F05CC04616570608F058C08091F4
:100F7000000190910101009741F48DB79EB7409117
:100F8000040150910501841B950BE817F90708F03F
:100F900055C0F0934201E0934101F90171836083F0
:100FA000A0CF8D919C91119712966C9012971396E9
:100FB0007C901397A815B90559F56C0142E0C40E51
:100FC000D11CCA14DB0420F1AC014A195B09DA0117
:100FD0001296159780F06282738251834083D90103
:100FE0006D937C93E114F10471F0D7011396FC9397
:100FF000EE93129776CF22968C0F9D1FF901918365
:101000008083F301EFCFF0934401E093430169CF74
:101010004816590608F42C017D01D3019ACFCB0163
:101020000E943F067C01009749F0AE01B8010E9482
:101030002108C8010E94DB06870153CF10E000E0C1
:1010400050CFFB01DC0102C001900D924150504095
:10105000D8F70895FB01DC0101900D920020E1F723
:101060000895FB01DC014150504048F001900D9281
:101070000020C9F701C01D9241505040E0F708958B
:1010800010E0C2E6D0E004C0FE010E9439062196BD
:0A109000C336D107C9F7F894FFCF6B
:10109A0000004501800000000000D0038D00C3015C
:0A10AA00C20151756575653A20001A
:107E0000112484B714BE81FFF0D085E080938100F7
:107E100082E08093C00088E18093C10086E0809377
:107E2000C20080E18093C4008EE0C9D0259A86E02C
:107E300020E33CEF91E0309385002093840096BBD3
:107E4000B09BFECF1D9AA8958150A9F7CC24DD24C4
:107E500088248394B5E0AB2EA1E19A2EF3E0BF2EE7
:107E6000A2D0813461F49FD0082FAFD0023811F036
:107E7000013811F484E001C083E08DD089C08234E0
:107E800011F484E103C0853419F485E0A6D080C0E4
:107E9000853579F488D0E82EFF2485D0082F10E0AE
:107EA000102F00270E291F29000F111F8ED06801E7
:107EB0006FC0863521F484E090D080E0DECF843638
:107EC00009F040C070D06FD0082F6DD080E0C81688
:107ED00080E7D80618F4F601B7BEE895C0E0D1E017
:107EE00062D089930C17E1F7F0E0CF16F0E7DF06D8
:107EF00018F0F601B7BEE89568D007B600FCFDCFD4
:107F0000A601A0E0B1E02C9130E011968C91119780
:107F100090E0982F8827822B932B1296FA010C0160
:107F200087BEE89511244E5F5F4FF1E0A038BF0790
:107F300051F7F601A7BEE89507B600FCFDCF97BE46
:107F4000E89526C08437B1F42ED02DD0F82E2BD052
:107F50003CD0F601EF2C8F010F5F1F4F84911BD097
:107F6000EA94F801C1F70894C11CD11CFA94CF0C13
:107F7000D11C0EC0853739F428D08EE10CD085E9AC
:107F80000AD08FE07ACF813511F488E018D01DD067
:107F900080E101D065CF982F8091C00085FFFCCF94
:107FA0009093C60008958091C00087FFFCCF809118
:107FB000C00084FD01C0A8958091C6000895E0E648
:107FC000F0E098E1908380830895EDDF803219F02E
:107FD00088E0F5DFFFCF84E1DECF1F93182FE3DFCA
:107FE0001150E9F7F2DF1F91089580E0E8DFEE27F6
:047FF000FF270994CA
:027FFE00040479
:0400000300007E007B
:00000001FF
