:100000000C9462000C947F000C947F000C947F0091
:100010000C947F000C947F000C947F000C94C7021A
:100020000C947F000C947F000C947F000C947F0054
:100030000C947F000C947F000C947F000C947F0044
:100040000C9449030C947F000C947F000C947F0067
:100050000C947F000C947F000C947F000C947F0024
:100060000C947F000C947F00000000002400270007
:100070002A000000000023002600290000000008DC
:10008000000201000003040700000000000000005F
:10009000010204081020408001020408102001021F
:1000A0000408102000000000250028002B00040494
:1000B0000404040404040202020202020303030310
:1000C0000303020011241FBECFEFD8E0DEBFCDBF77
:1000D00011E0A0E0B1E0E0E3FBE002C005900D928A
:1000E000A230B107D9F721E0A2E0B1E001C01D9232
:1000F000AC31B207E1F70E9493030C9496050C947F
:100100000000833081F028F4813099F08230A9F02A
:1001100008958730A9F08830C9F08430B1F4809117
:1001200080008F7D03C0809180008F778093800056
:10013000089584B58F7784BD089584B58F7DFBCFF6
:100140008091B0008F778093B00008958091B000C7
:100150008F7DF9CFCF93DF93282F30E0F901E4585A
:10016000FF4F8491F901E057FF4FD491F901E25517
:10017000FF4FC491CC23A1F081110E948100EC2F8C
:10018000F0E0EE0FFF1FEE58FF4FA591B491EC91F8
:10019000ED2381E090E009F480E0DF91CF910895B4
:1001A00080E090E0FACF1F93CF93DF93282F30E0C9
:1001B000F901E458FF4F8491F901E057FF4FD491C2
:1001C000F901E255FF4FC491CC23A9F0162F8111FC
:1001D0000E948100EC2FF0E0EE0FFF1FEC55FF4F67
:1001E000A591B4918FB7F894EC91111108C0D095F6
:1001F000DE23DC938FBFDF91CF911F910895DE2B1B
:10020000F8CFCF93DF9390E0FC01E057FF4F2491AC
:1002100082559F4FFC0184918823D1F090E0880F94
:10022000991FFC01E859FF4FA591B491FC01EC55D1
:10023000FF4FC591D49161110EC09FB7F8948C9176
:10024000E22FE0958E238C932881E223E8839FBFE1
:10025000DF91CF9108958FB7F894EC91E22BEC9356
:100260008FBFF6CFCF92DF92EF92FF920F931F9343
:10027000CF938B0190910001891759F09F3F09F4AA
:100280004AC0CF911F910F91FF90EF90DF90CF90D8
:100290000895E2ECF0E0C491C7FDF3CF61E00E9465
:1002A0000101C1114CC0980150E040E062E17AE7E1
:1002B00080E090E00E94680569017A0181E0C81A37
:1002C000D108E108F10885B5887F846085BD980173
:1002D000220F331FA4E6B0E00E94870528EE33E02A
:1002E00040E050E00E944605C13009F4BEC0C23073
:1002F00009F4CDC0C111C5CFC7BC209318013093FC
:10030000190140931A0150931B0180916E00826085
:1003100080936E00B6CF80930001E2ECF0E0C491D0
:10032000CF3F09F4AECFC13009F440C010F1C23064
:1003300009F45EC0C7FDA5CF61E00E9401019801EC
:1003400050E040E0C23009F079C064E274EF80E030
:1003500090E00E94680569017A0181E0C81AD1081D
:10036000E108F1088091B100887F85608093B10039
:10037000AECF14BC15BC94B5926094BD95B5916098
:1003800095BD282F30E0F901E255FF4FE491F0E0F0
:10039000EE0FFF1FEC55FF4F45915491F901E057C7
:1003A000FF4FE491E0930F01C0E078CF10928000FE
:1003B00010928100909181009860909381009091BB
:1003C0008100916090938100282F30E0F901E2557F
:1003D000FF4FE491F0E0EE0FFF1FEC55FF4F45910A
:1003E0005491F901E057FF4FE491E0930E0156CF8D
:1003F0001092B0001092B1009091B0009260909372
:10040000B0009091B10091609093B100282F30E03E
:10041000F901E255FF4FE491F0E0EE0FFF1FEC55BC
:10042000FF4F4591549150930D0140930C01F901F8
:10043000E057FF4FE491E0930B0130CF60E072E1B1
:100440008AE790E00E94680569017A0181E0C81A94
:10045000D108E108F108C13009F039CF809181005D
:10046000887F81608093810032CFD0928900C092D2
:100470008800209314013093150140931601509386
:10048000170180916F00826080936F00FACEC09256
:10049000B300209310013093110140931201509347
:1004A000130180917000826080937000EACE3FB7A4
:1004B000F8948091070190910801A0910901B091F1
:1004C0000A0126B5A89B05C02F3F19F00196A11D72
:1004D000B11D3FBFBA2FA92F982F8827BC01CD018E
:1004E000620F711D811D911D42E0660F771F881FED
:1004F000991F4A95D1F708958F929F92AF92BF921C
:10050000CF92DF92EF92FF920E9457024B015C0163
:1005100088ECC82ED12CE12CF12C0E9457026819CE
:1005200079098A099B09683E734081059105A8F302
:1005300021E0C21AD108E108F10888EE880E83E0B4
:10054000981EA11CB11CC114D104E104F10429F7C7
:10055000FF90EF90DF90CF90BF90AF909F908F90E3
:10056000089561E084E00E94D30065E071E084E0DA
:100570000E9432010E947C0265E271E084E00E94E8
:1005800032010E947C0260E084E00C94D3001F9250
:100590000F920FB60F9211242F933F934F935F93B7
:1005A0006F937F938F939F93AF93BF93EF93FF933B
:1005B0008091100190911101A0911201B09113014D
:1005C000892B8A2B8B2BD1F190910B01E0910C019F
:1005D000F0910D0180818927808380911001909195
:1005E0001101A0911201B0911301181619061A06F3
:1005F0001B069CF48091100190911101A0911201B1
:10060000B09113010197A109B10980931001909352
:100610001101A0931201B0931301FF91EF91BF91CB
:10062000AF919F918F917F916F915F914F913F918A
:100630002F910F900FBE0F901F9018958091000181
:10064000E2ECF0E0E4919FEF90930001E13051F093
:1006500030F0E23069F060E00E94D300DECF10920B
:100660006E00F9CF90916F009D7F90936F00F3CF54
:10067000909170009D7F9093700091E09093B000F6
:100680009091B100987F94609093B1001092B30064
:10069000E2CF1F920F920FB60F9211242F933F9328
:1006A0008F939F93AF93BF93809103019091040127
:1006B000A0910501B09106013091020123E0230FC2
:1006C0002D3758F50196A11DB11D2093020180938D
:1006D000030190930401A0930501B093060180915A
:1006E000070190910801A0910901B0910A010196BA
:1006F000A11DB11D8093070190930801A0930901EA
:10070000B0930A01BF91AF919F918F913F912F912B
:100710000F900FBE0F901F90189526E8230F02969A
:10072000A11DB11DD2CF789484B5826084BD84B5FB
:10073000816084BD85B5826085BD85B5816085BDDC
:1007400080916E00816080936E0010928100809194
:10075000810082608093810080918100816080931C
:100760008100809180008160809380008091B10041
:1007700084608093B1008091B00081608093B0006C
:1007800080917A00846080937A0080917A00826000
:1007900080937A0080917A00816080937A008091C2
:1007A0007A00806880937A001092C10060E08EE049
:1007B0000E94010160E08FE00E94010160E080E1A1
:1007C0000E94010160E081E10E94010160E082E19C
:1007D0000E94010160E083E10E94010160E080E08D
:1007E0000E94010160E081E00E94010161E08CE073
:1007F0000E94010161E08BE00E94010161E08AE05A
:100800000E94010161E089E00E94010161E088E04D
:100810000E94010161E087E00E94010161E086E041
:100820000E94010161E085E00E94010161E084E035
:100830000E94010161E08CE00E94D30061E08BE046
:100840000E94D30061E08AE00E94D30061E089E069
:100850000E94D30061E088E00E94D30061E087E05D
:100860000E94D30060E086E00E94D30061E085E052
:100870000E94D30060E084E00E94D30080E0482E14
:1008800080E0582E8EE00E94AA005C018FE00E945A
:10089000AA006C0180E10E94AA007C0181E10E9413
:1008A000AA008C0182E10E94AA00EC0183E10E946F
:1008B000AA004C0180E00E94AA003C0181E00E9455
:1008C000AA00AB28D9F461E08BE00E94D30061E07C
:1008D0008AE00E94D30060E089E00E94D30060E0DB
:1008E00088E00E94D30060E087E00E94D30060E0CF
:1008F00086E00E94D30060E08CE01CC0CD2829F582
:1009000061E08BE00E94D30061E08CE00E94D300A4
:1009100061E089E00E94D30061E088E00E94D3009A
:1009200060E087E00E94D30061E086E00E94D3008F
:1009300060E08AE00E94D3000E94B1024114510499
:1009400009F4A0CF0E9400009DCFEF28D9F461E008
:100950008BE00E94D30061E08CE00E94D30061E054
:100960008AE00E94D30061E089E00E94D30061E048
:1009700086E00E94D30060E087E00E94D30060E040
:1009800088E0D8CF012BB9F461E08BE00E94D3005E
:1009900061E08AE00E94D30061E087E00E94D3001A
:1009A00061E086E00E94D30060E088E00E94D3000E
:1009B00060E089E09ECFCD2BB9F461E08AE00E942F
:1009C000D30061E08CE00E94D30061E089E00E94E6
:1009D000D30061E087E00E94D30061E086E00E94DE
:1009E000D30060E08BE0C9CF8928D9F461E08AE0C8
:1009F0000E94D30061E08CE00E94D30061E089E0B6
:100A00000E94D30061E088E00E94D30061E087E0AB
:100A10000E94D30061E086E00E94D30060E08BE09A
:100A200089CF6728D1F461E08AE00E94D30061E0B9
:100A30008CE00E94D30060E089E00E94D30060E077
:100A400088E00E94D30060E087E00E94D30060E06D
:100A500086E00E94D30061E0E2CF892B09F06ECFDF
:100A600061E08AE00E94D30061E08CE00E94D30044
:100A700061E089E00E94D30061E088E00E94D30039
:100A800061E087E00E94D30061E0E2CFA1E21A2E8C
:100A9000AA1BBB1BFD010DC0AA1FBB1FEE1FFF1F22
:100AA000A217B307E407F50720F0A21BB30BE40B72
:100AB000F50B661F771F881F991F1A9469F76095B9
:100AC0007095809590959B01AC01BD01CF01089573
:100AD000052E97FB1EF400940E947F0557FD07D05A
:100AE0000E94460507FC03D04EF40C947F055095F8
:100AF0004095309521953F4F4F4F5F4F089590950A
:100B00008095709561957F4F8F4F9F4F0895A29F5D
:100B1000B001B39FC001A39F700D811D1124911DD1
:100B2000B29F700D811D1124911D0895F894FFCF7F
:020B3000FF00C4
:00000001FF
